:100000000C9466000C943E030C9465030C948300DE
:100010000C9483000C9483000C9483000C94830054
:100020000C9483000C9483000C9483000C94830044
:100030000C9483000C9483000C9483000C94830034
:100040000C948C030C9483000C9483000C94830018
:100050000C9483000C9483000C9483000C94830014
:100060000C9483000C94830000000009000302003C
:10007000000405080000000000000000000000016E
:10008000020408102040800102040810200102042C
:100090000810204080400404040404040404020204
:1000A000020202020303030303030202030000002F
:1000B0000023002600290000000000250028002B56
:1000C0000000000000240027002A000011241FBEA9
:1000D000CFEFD8E0DEBFCDBF11E0A0E0B1E0EAEBAA
:1000E000FAE002C005900D92A630B107D9F721E0E1
:1000F000A6E0B1E001C01D92A232B207E1F70E9472
:1001000035050C945B050C94000080911001811161
:100110001EC026B199B130E2939FC00111248076B0
:100120002F71822B8093000181E090E090930B016E
:1001300080930A0110920F01809100018F3739F0EE
:1001400080910001882319F081E0809310010895C7
:100150000C944D058091100181111CC026B199B1FC
:1001600030E2939FC001112480762F71822B8093FF
:10017000000181E090E090930B0180930A0180934D
:100180000F01909100019F3729F09091000191118A
:10019000809310010895CF93C82F61E087E00E94FB
:1001A000DD0462E370E080E090E00E94FB0360E029
:1001B000C0FD61E084E00E94DD0460E0C1FD61E01B
:1001C00085E00E94DD0460E0C2FD61E086E00E94FF
:1001D000DD0460E0C3FD61E08AE0CF910C94DD04B2
:1001E00062E082E00E94A10462E083E00E94A10438
:1001F00062E08EE00E94A10462E08FE00E94A10410
:1002000062E080E10E94A10462E081E10E94A10419
:1002100062E080E00E94A10462E081E00E94A1040B
:1002200062E082E10E94A10462E083E10E94A104F5
:1002300060E089E00E94A10461E089E00E94DD04A1
:1002400060E088E00E94A10488E00E940B05892BF1
:1002500019F481E08093180190E080E00E94450548
:100260009FEF980F9E3008F05BC08093170181E0EC
:1002700090E00E944505823008F05BC08093090140
:10028000109208018091170190911801890F8150F7
:10029000809316010E94CB0061E084E00E94A104DB
:1002A00061E085E00E94A10461E086E00E94A10473
:1002B00061E08AE00E94A10460E087E00E94DD0422
:1002C00061E087E00E94A10480E197E290930D0134
:1002D00080930C0110920B0110920A018EE090E0C5
:1002E000909312018093110180910901813051F4A2
:1002F00081E090E090930B0180930A0110920D0130
:1003000010920C0150E040E06AEA70E080E00E9448
:100310001E0350E040E065E870E081E00C941E03AD
:1003200081E08093170161E090E080E00E94A800E6
:100330009ECF1092090160E081E090E00E94A80049
:100340009FCF61E087E00E94DD0464E670E080E01A
:1003500090E00E94FB0380910801882341F060E057
:1003600089E00E94DD0461E089E00E94A1046CE262
:1003700071E080E090E00E94FB0360E087E00E9473
:10038000DD0480910801882371F06CE271E080E067
:1003900090E00E94FB0360E089E00E94A10461E01C
:1003A00089E00E94DD048091090181110FC080E184
:1003B00097E290930D0180930C0110920B01109223
:1003C0000A011092140110921301089510920D0168
:1003D00010920C0181E090E090930B0180930A0150
:1003E000F0CF61E087E00E94DD04809116010E9459
:1003F000CB000E94A10160ED77E080E090E00C94DA
:10040000FB0380910A0190910B01892B99F426B18D
:1004100099B130E2939FC001112480762F71822B15
:1004200080930E018F3701F181E090E090930B01F2
:1004300080930A0183E10E940B05019709F08FC0A8
:1004400080911501882399F18091130190911401F5
:10045000893B2BE0920744F181E0809308010E94E0
:10046000A1011092080123C080910C0190910D010F
:100470001816190654F4019790930D0180930C01FE
:1004800081E290E00E943404D5CF81E0809317018F
:1004900061E090E080E00E94A800809118018093C4
:1004A00016010E94F101C6CF8D3D9540C4F6109211
:1004B0001501109214011092130180910601909180
:1004C0000701181619062CF40197909307018093E1
:1004D000060180911001882309F4ABC080910001CE
:1004E00084FD65C081E08093010180910F0181113D
:1004F00005C0809101018F5F80930101609101012E
:10050000662309F478C08091110190911201681757
:10051000190611F00CF089C080911501882309F4A7
:1005200084C06093170190E080E00E94A800909141
:10053000180180911701911101C08150809316011B
:100540001092090160E081E090E00E94A8000E9402
:10055000F1011092100188EE93E00C94340421E034
:1005600020931501809113019091140101969093AD
:100570001401809313018C3D35E0930739F484EF27
:1005800091E0909307018093060197CF893B9B40B0
:100590000CF493CF209308010E94A1011092150141
:1005A00010921401109213011092080186CF8091CD
:1005B000000180FD02C083E096CF8091000181FDA3
:1005C00002C085E090CF8091000182FD02C087E0EB
:1005D0008ACF8091000183FD02C089E084CF8091A1
:1005E000000185FD02C08BE07ECF8091000186FD79
:1005F0007CCF8DE078CF809115018823B1F081E028
:100600008093170161E090E080E00E94A800909143
:10061000180180911701911101C08150809316013A
:1006200081E08093090161E08ECF80E88093010131
:1006300090CF80E8809301018ECF08958230E8F456
:10064000E82FF0E0EE0FFF1FEE5FFE4F7183608337
:10065000813041F0809169008C7F482B4093690084
:10066000E89A089580916900837F440F551F440FD5
:10067000551F482B40936900E99A08951F920F92E5
:100680000FB60F9211242F933F934F935F936F9365
:100690007F938F939F93AF93BF93EF93FF93E091DB
:1006A0000201F09103010995FF91EF91BF91AF9184
:1006B0009F918F917F916F915F914F913F912F917A
:1006C0000F900FBE0F901F9018951F920F920FB6AC
:1006D0000F9211242F933F934F935F936F937F93C8
:1006E0008F939F93AF93BF93EF93FF93E091040198
:1006F000F09105010995FF91EF91BF91AF919F9105
:100700008F917F916F915F914F913F912F910F90BA
:100710000FBE0F901F9018951F920F920FB60F9259
:1007200011242F933F938F939F93AF93BF93809107
:100730001A0190911B01A0911C01B0911D013091F3
:10074000190126E0230F2D3758F50296A11DB11D82
:100750002093190180931A0190931B01A0931C010F
:10076000B0931D0180911E0190911F01A091200165
:10077000B09121010196A11DB11D80931E0190939E
:100780001F01A0932001B0932101BF91AF919F91D0
:100790008F913F912F910F900FBE0F901F90189542
:1007A00029E8230F0396A11DB11DD2CF3FB7F894BE
:1007B00080911E0190911F01A0912001B091210113
:1007C00026B5A89B05C02F3F19F00196A11DB11DAC
:1007D0003FBFBA2FA92F982F8827BC01CD01620FE8
:1007E000711D811D911D43E0660F771F881F991FA2
:1007F0004A95D1F708958F929F92AF92BF92CF9270
:10080000DF92EF92FF926B017C010E94D6034B01B5
:100810005C01C114D104E104F104E9F00E94440533
:100820000E94D603681979098A099B09683E7340BA
:100830008105910570F321E0C21AD108E108F108A1
:1008400088EE880E83E0981EA11CB11CC114D1044F
:10085000E104F10429F7FF90EF90DF90CF90BF9073
:10086000AF909F908F9008958330910528F0880F66
:10087000991F04970197F1F70895789484B58260E1
:1008800084BD84B5816084BD85B5826085BD85B534
:10089000816085BDEEE6F0E0808181608083E1E8E3
:1008A000F0E010828081826080838081816080831B
:1008B000E0E8F0E0808181608083E1EBF0E080811E
:1008C00084608083E0EBF0E0808181608083EAE7F0
:1008D000F0E0808184608083808182608083808179
:1008E0008E7F80838081806880831092C10008950C
:1008F000843081F028F4823099F08330A9F0089593
:100900008830A9F08930C9F08530B1F48091800039
:100910008F7D03C0809180008F7780938000089541
:1009200084B58F7784BD089584B58F7DFBCF80918A
:10093000B0008F778093B00008958091B0008F7DD4
:10094000F9CFCF93DF9390E0FC01E158FF4F249162
:100950008A569F4FFC0184918823C9F090E0880F4C
:10096000991FFC01EF53FF4FA591B491FC01E9548D
:10097000FF4FC591D49161110DC09FB7F8948C9130
:10098000209582238C938881282328839FBFDF9121
:10099000CF910895623051F49FB7F8943C91822F23
:1009A000809583238C93E8812E2BEFCF8FB7F8941B
:1009B000EC912E2B2C938FBFEACF1F93CF93DF9315
:1009C000282F30E0F901E859FF4F8491F901E158EF
:1009D000FF4FD491F901EA56FF4FC491CC23A9F0FF
:1009E000162F81110E947804EC2FF0E0EE0FFF1F0C
:1009F000E954FF4FA591B4918FB7F894EC91111180
:100A000008C0D095DE23DC938FBFDF91CF911F917B
:100A10000895DE2BF8CFCF93DF93282F30E0F90134
:100A2000E859FF4F8491F901E158FF4FD491F90142
:100A3000EA56FF4FC491CC23A1F081110E947804A3
:100A4000EC2FF0E0EE0FFF1FE355FF4FA591B4919F
:100A5000EC91ED2381E090E009F480E0DF91CF910B
:100A6000089580E090E0FACF08950E943D040E942E
:100A700034050E94F000C0E0D0E00E9401022097FF
:100A8000E1F30E940000F9CF0895F999FECF92BDDD
:100A900081BDF89A992780B50895262FF999FECF40
:100AA0001FBA92BD81BD20BD0FB6F894FA9AF99A8B
:0A0AB0000FBE01960895F894FFCFE1
:060ABA007F801D03000017
:0200000002C03C
:00000001FF