:100000000C9467000C94CA030C94F1030C948F00B9
:100010000C948F000C948F000C948F000C948F0024
:100020000C948F000C948F000C948F000C948F0014
:100030000C948F000C948F000C948F000C948F0004
:100040000C9418040C948F000C94EF060C94210768
:100050000C948F000C948F000C948F000C948F00E4
:100060000C948F000C948F00000000090003020024
:10007000000405080000000000000000000000016E
:10008000020408102040800102040810200102042C
:100090000810204080400404040404040404020204
:1000A000020202020303030303030202030000002F
:1000B0000023002600290000000000250028002B56
:1000C0000000000000240027002A0000510711242E
:1000D0001FBECFEFD8E0DEBFCDBF12E0A0E0B1E0A1
:1000E000E0E4F1E102C005900D92A635B107D9F721
:1000F00023E0A6E5B2E001C01D92AF30B207E1F700
:1001000010E0C7E6D0E004C02197FE010E948208FB
:10011000C636D107C9F70E9450080C949E080C946B
:10012000000080916002811117C086B18F718093A9
:10013000000181E090E090935B0280935A0210925C
:100140005F02809100018F3139F080910001882396
:1001500019F081E08093600208950C9490088091DA
:100160006002811115C086B18F718093000181E01A
:1001700090E090935B0280935A0280935F0290918B
:1001800000019F3129F0909100019111809360024C
:100190000895CF93C82F61E087E00E94690562E36C
:1001A00070E080E090E00E94870460E0C0FD61E0C4
:1001B00084E00E94690560E0C1FD61E085E00E9485
:1001C000690560E0C2FD61E086E0CF910C946905AD
:1001D00062E082E00E942D0562E083E00E942D052E
:1001E00062E08EE00E942D0562E08FE00E942D0506
:1001F00062E080E10E942D0562E081E10E942D0510
:1002000062E082E10E942D0562E083E10E942D05FB
:1002100060E089E00E942D0561E089E00E946905A7
:1002200061E08AE00E94690561E08AE00E942D0594
:1002300060E088E00E942D0588E00E949705892BE8
:1002400019F481E08093680290E080E00E948808C1
:1002500080936702882351F09091680228E030E093
:10026000291B31098217130649F044F081E080937D
:10027000670261E090E080E00E94AD0081E090E0E4
:100280000E948808823008F08DC080935902109235
:1002900058028091670290916802890F8150809383
:1002A00066020E94C90061E084E00E942D0561E0C1
:1002B00085E00E942D0561E086E00E942D0560E04A
:1002C00087E00E94690561E087E00E942D0580E1DA
:1002D00097E290935D0280935C0210925B02109211
:1002E0005A022091680288E090E0821B9109909365
:1002F00062028093610280915902813051F481E061
:1003000090E090935B0280935A0210925D021092EB
:100310005C0250E040E06FEA70E080E00E94AA03D7
:1003200050E040E061E970E081E00E94AA0326E02D
:1003300040E855E260E070E082E792E00E949306B8
:1003400066E071E082E792E00E94C6078091680251
:1003500063E371E0813011F06BE471E082E792E0D9
:100360000E94C60762E671E082E792E00E94BA0747
:100370008091590266E372E0813011F068E372E027
:1003800082E792E00E94C6076BE971E082E792E0A3
:100390000E94BA074AE050E06091670282E792E06B
:1003A0000C943D081092590260E081E090E00E94B8
:1003B000AD006DCF60E08AE00E94690561E087E0F2
:1003C0000E94690564E670E080E090E00E94870486
:1003D00080915802882341F060E089E00E9469051D
:1003E00061E089E00E942D056CE271E080E090E020
:1003F0000E94870460E087E00E94690580915802AE
:10040000882371F06CE271E080E090E00E94870444
:1004100060E089E00E942D0561E089E00E946905A5
:1004200080915902811112C080E197E290935D02A0
:1004300080935C0210925B0210925A021092640246
:100440001092630261E08AE00C94690510925D02EB
:1004500010925C0281E090E090935B0280935A02DC
:10046000EDCF61E087E00E946905809166020E94FD
:10047000C90061E971E082E792E00E94BA074AE0B0
:1004800050E06091670282E792E00E943D080E947E
:10049000DA0160ED77E080E090E00C948704CF9380
:1004A00080915A0290915B02892B99F486B18F71E9
:1004B00080935E028F3109F4AFC081E090E09093A9
:1004C0005B0280935A026BEA71E082E792E00E943D
:1004D000C60783E10E949705019709F0C3C0809188
:1004E0006502882309F18091630290916402893B3F
:1004F0009B404CF081E0809358026EED71E082E702
:1005000092E00E94BA0780916302909164028D3D4F
:10051000954054F067EF71E082E792E00E94C607D1
:100520000E94DA0110925802109265021092640241
:100530001092630280915602909157021816190684
:100540005CF401979093570280935602892B21F413
:1005500061E08AE00E94690580916002882309F4C5
:10056000F4C08091000184FDB2C081E0809301015C
:1005700080915F02811105C0809101018F5F80939E
:100580000101809101018A3011F41092010167E1AB
:1005900072E082E792E00E94BA074AE050E0609180
:1005A000010182E792E00E94360868EB71E082E781
:1005B00092E00E94C60760910101662309F49FC082
:1005C00080916102909162026817190611F00CF097
:1005D000B8C080916502882309F4B3C060936702B4
:1005E00090E080E00E94AD008091670290916802E7
:1005F000890F8150809366021092590260E081E079
:1006000090E00E94AD000E9431021092600288EEDC
:1006100093E0CF910C94C00480915C0290915D02B4
:100620001816190654F4019790935D0280935C02AA
:1006300081E290E00E94C0044CCF63EC71E082E75D
:1006400092E00E94C60781E08093670261E090E03B
:1006500080E00E94AD0080916802809366020E9453
:10066000310237CF81E080936502809163029091DF
:100670006402019690936402809363028C3D9540DE
:1006800051F460E08AE00E94690584EF91E0909364
:100690005702809356028091630290916402893BD5
:1006A0009B400CF447CF81E0809358026BEE71E0E1
:1006B00082E792E00E94C6070E94DA01109265026A
:1006C00010926402109263021092580233CF80910C
:1006D000000180FD02C083E049CF8091000181FDCF
:1006E00002C085E043CF8091000182FD02C087E017
:1006F0003DCF8091000183FD3BCF89E037CF8091D2
:1007000065028823F1F0C1E0C093670261E090E0E8
:1007100080E00E94AD008091670290916802890F8D
:10072000815080936602C093590261E081E090E0BD
:100730000E94AD006CE172E082E792E00E94C60781
:1007400062CF80E88093010160CF80E8809301014F
:100750005ECF08958230E8F4E82FF0E0EE0FFF1F3F
:10076000EE5FFE4F71836083813041F080916900BC
:100770008C7F482B40936900E89A08958091690026
:10078000837F440F551F440F551F482B409369002A
:10079000E99A08951F920F920FB60F9211242F938A
:1007A0003F934F935F936F937F938F939F93AF93F9
:1007B000BF93EF93FF93E0910201F091030109953C
:1007C000FF91EF91BF91AF919F918F917F916F9129
:1007D0005F914F913F912F910F900FBE0F901F90FF
:1007E00018951F920F920FB60F9211242F933F93DB
:1007F0004F935F936F937F938F939F93AF93BF9329
:10080000EF93FF93E0910401F09105010995FF91A9
:10081000EF91BF91AF919F918F917F916F915F9178
:100820004F913F912F910F900FBE0F901F901895F1
:100830001F920F920FB60F9211242F933F938F9315
:100840009F93AF93BF9380916A0290916B02A091A6
:100850006C02B0916D023091690226E0230F2D37B2
:1008600058F50296A11DB11D2093690280936A027A
:1008700090936B02A0936C02B0936D0280916E0214
:1008800090916F02A0917002B09171020196A11D2A
:10089000B11D80936E0290936F02A0937002B0938B
:1008A0007102BF91AF919F918F913F912F910F90C6
:1008B0000FBE0F901F90189529E8230F0396A11DD6
:1008C000B11DD2CF3FB7F89480916E0290916F0224
:1008D000A0917002B091710226B5A89B05C02F3F70
:1008E00019F00196A11DB11D3FBFBA2FA92F982F56
:1008F0008827BC01CD01620F711D811D911D43E050
:10090000660F771F881F991F4A95D1F708958F9218
:100910009F92AF92BF92CF92DF92EF92FF926B01C4
:100920007C010E9462044B015C01C114D104E1040A
:10093000F104E9F00E945F080E94620468197909D5
:100940008A099B09683E73408105910570F321E097
:10095000C21AD108E108F10888EE880E83E0981EDB
:10096000A11CB11CC114D104E104F10429F7FF90CA
:10097000EF90DF90CF90BF90AF909F908F900895B1
:100980008330910528F0880F991F04970197F1F79C
:100990000895789484B5826084BD84B5816084BDF7
:1009A00085B5826085BD85B5816085BDEEE6F0E0E8
:1009B000808181608083E1E8F0E010828081826044
:1009C0008083808181608083E0E8F0E080818160C5
:1009D0008083E1EBF0E0808184608083E0EBF0E0F5
:1009E000808181608083EAE7F0E080818460808399
:1009F00080818260808380818E7F80838081806817
:100A000080831092C1000895843081F028F48230F0
:100A100099F08330A9F008958830A9F08930C9F0A1
:100A20008530B1F4809180008F7D03C0809180007B
:100A30008F7780938000089584B58F7784BD089563
:100A400084B58F7DFBCF8091B0008F778093B0000D
:100A500008958091B0008F7DF9CFCF93DF9390E020
:100A6000FC01E158FF4F24918A569F4FFC0184916D
:100A70008823C9F090E0880F991FFC01EF53FF4FC6
:100A8000A591B491FC01E954FF4FC591D491611136
:100A90000DC09FB7F8948C91209582238C93888108
:100AA000282328839FBFDF91CF910895623051F4AE
:100AB0009FB7F8943C91822F809583238C93E88193
:100AC0002E2BEFCF8FB7F894EC912E2B2C938FBF5A
:100AD000EACF1F93CF93DF93282F30E0F901E85935
:100AE000FF4F8491F901E158FF4FD491F901EA5683
:100AF000FF4FC491CC23A9F0162F81110E94040549
:100B0000EC2FF0E0EE0FFF1FE954FF4FA591B491D9
:100B10008FB7F894EC91111108C0D095DE23DC93C7
:100B20008FBFDF91CF911F910895DE2BF8CFCF9328
:100B3000DF93282F30E0F901E859FF4F8491F90144
:100B4000E158FF4FD491F901EA56FF4FC491CC23ED
:100B5000A1F081110E940405EC2FF0E0EE0FFF1FC1
:100B6000E355FF4FA591B491EC91ED2381E090E026
:100B700009F480E0DF91CF91089580E090E0FACF12
:100B8000FC01918D228D892F90E0805C9F4F821B0C
:100B900091098F7399270895FC01918D828D981783
:100BA00031F0828DE80FF11D858D90E008958FEF73
:100BB0009FEF0895FC01918D828D981761F0A28DB1
:100BC000AE0FBF2FB11D5D968C91928D9F5F9F736D
:100BD000928F90E008958FEF9FEF0895FC01538D61
:100BE000448D252F30E0842F90E0821B930B541707
:100BF00010F0CF9608950197089587E497E0892B28
:100C000049F080E090E0892B29F00E94470781118C
:100C10000C9400000895FC01A48DA80FB92FB11DFC
:100C2000A35ABF4F2C91848D90E001968F73992722
:100C3000848FA689B7892C93A089B1898C9180640F
:100C40008C93938D848D981306C00288F389E02DD0
:100C500080818F7D80830895CF93DF93EC01888D11
:100C60008823B9F0AA89BB89E889F9898C9185FD27
:100C700003C0808186FD0DC00FB607FCF7CF8C91B5
:100C800085FFF2CF808185FFEDCFCE010E940B065C
:100C9000E9CFDF91CF910895EF92FF920F931F93C9
:100CA000CF93DF93EC0181E0888F9B8D8C8D98131F
:100CB00016C0E889F989808185FF11C0EE89FF8916
:100CC0006083E889F98980818064808381E090E095
:100CD000DF91CF911F910F91FF90EF900895F62E25
:100CE0000B8D10E00F5F1F4F0F731127E02E8C8DBF
:100CF0008E110CC00FB607FCFACFE889F989808104
:100D000085FFF5CFCE010E940B06F1CFEB8DEC0FE6
:100D1000FD2FF11DE35AFF4FF0820B8FEA89FB890B
:100D200080818062D2CFCF92DF92EF92FF921F93A9
:100D3000CF93DF93EC016A017B01122F60E874E826
:100D40008EE190E0A70196010E94600821503109D0
:100D5000410951095695479537952795E889F989AD
:100D600082E08083211580E1380798F0E889F989CD
:100D7000108260E472E48FE090E0A70196010E9487
:100D80006008215031094109510956954795379519
:100D90002795EC85FD853083EE85FF852083188EB1
:100DA000EC89FD891083EA89FB89808180618083D9
:100DB000EA89FB89808188608083EA89FB89808158
:100DC00080688083EA89FB8980818F7D8083DF91C1
:100DD000CF911F91FF90EF90DF90CF9008951F92D9
:100DE0000F920FB60F9211242F938F939F93EF932F
:100DF000FF93E0918202F09183028081E09188026A
:100E0000F091890282FD1BC0908180918B028F5FDF
:100E10008F7320918C02821741F0E0918B02F0E0F9
:100E2000EE58FD4F958F80938B02FF91EF919F912C
:100E30008F912F910F900FBE0F901F90189580816A
:100E4000F4CF1F920F920FB60F9211242F933F935E
:100E50004F935F936F937F938F939F93AF93BF93C2
:100E6000EF93FF9382E792E00E940B06FF91EF91D0
:100E7000BF91AF919F918F917F916F915F914F91B2
:100E80003F912F910F900FBE0F901F90189582E702
:100E900092E00E94C00521E0892B09F420E0822F16
:100EA0000895E2E7F2E01382128288EE93E0A0E078
:100EB000B0E084839583A683B78384E492E0918332
:100EC000808385EC90E09587848784EC90E0978719
:100ED000868780EC90E0918B808B81EC90E0938B07
:100EE000828B82EC90E0958B848B86EC90E0978BE4
:100EF000868B118E128E138E148E0895AF92BF9230
:100F0000CF92DF92EF92FF920F931F93CF93DF93D5
:100F10006C017B018B01040F151FEB015E01AE1804
:100F2000BF08C017D10759F06991D601ED91FC9126
:100F30000190F081E02DC6010995892B79F7C50153
:100F4000DF91CF911F910F91FF90EF90DF90CF90A5
:100F5000BF90AF900895FB0101900020E9F7319711
:100F6000AF01461B570BDC01ED91FC910280F38130
:100F7000E02D09946115710511F00C94AB0790E018
:100F800080E0089562E572E00C94AB070F931F9325
:100F9000CF93DF938C01D0E0C0E06115710519F0AB
:100FA0000E94AB07EC01C8010E94C2078C0F9D1F75
:100FB000DF91CF911F910F9108958F929F92AF92E1
:100FC000BF92EF92FF920F931F93CF93DF93CDB712
:100FD000DEB7A1970FB6F894DEBF0FBECDBF7C0180
:100FE000FA01CB0119A2223008F42AE08E010F5D2C
:100FF0001F4F822E912CB12CA12CBF01A501940171
:101000000E946008F901CA016A300CF5605DD801E0
:101010006E938D01232B242B252B79F790E080E014
:10102000109721F0BD01C7010E94AB07A1960FB632
:10103000F894DEBF0FBECDBFDF91CF911F910F910E
:10104000FF90EF90BF90AF909F908F900895695C54
:10105000DECF2115310541F4DC01ED91FC910190C9
:10106000F081E02D642F09940C94DD079A01462F3E
:1010700050E070E060E00C9429080F931F93CF9329
:10108000DF93EC010E9436088C01CE010E94C2075A
:10109000800F911FDF91CF911F910F9108950895B7
:1010A0000E94C9040E944F080E94E800CDEFD5E0DD
:1010B0000E944F022097E1F30E94FD05F9CF0895A9
:1010C000A1E21A2EAA1BBB1BFD010DC0AA1FBB1F4C
:1010D000EE1FFF1FA217B307E407F50720F0A21BBE
:1010E000B30BE40BF50B661F771F881F991F1A942B
:1010F00069F760957095809590959B01AC01BD0155
:10110000CF010895EE0FFF1F0590F491E02D099493
:10111000F999FECF92BD81BDF89A992780B50895BF
:10112000262FF999FECF1FBA92BD81BD20BD0FB603
:10113000F894FA9AF99A0FBE01960895F894FFCFA1
:101140001F80A90300000A433634204B6579626F83
:1011500061726420436F6E74726F6C6C6564204BB7
:1011600065726E616C205377697463682076302EE7
:1011700032300053686F727420426F617264206372
:101180006F6E666967757265642E004C6F6E6720BE
:10119000426F61726420636F6E6669677572656421
:1011A0002E00456D707479204B65726E616C2073F2
:1011B0006C6F7420283D7363616E2061637469767F
:1011C0006974792920646574656374696F6E3A2067
:1011D000004368616E676520746F204B65726E61B5
:1011E0006C206E756D6265723A20004B6579626F96
:1011F000617264207363616E2064657465637465F5
:10120000642E004E6F206B6579626F61726420738B
:1012100063616E2064657465637465642E0045586F
:10122000524F4D206D6F64653A20004558524F4D26
:10123000206D6F64653A20526573746F7265206B20
:101240006579203D3E205265736574696E67207430
:10125000686520433634004B657920004B65726E1B
:10126000616C203120616E64207363616E2074694B
:101270006D656F757420696E6163746976652E00A3
:10128000000000004C067E07EE052C06C005DA05BE
:06129000CC050D0A000070
:00000001FF
