:100000000C9462000C94A3040C947C040C948A005D
:100010000C948A000C948A000C948A000C948A0038
:100020000C948A000C948A000C948A000C948A0028
:100030000C948A000C948A000C948A000C948A0018
:100040000C9432040C948A000C9400040C94DA038F
:100050000C948A000C948A000C948A000C948A00F8
:100060000C948A000C948A000000000024002700F1
:100070002A0000000000250028002B0000000000DE
:1000800023002600290004040404040404040202DA
:100090000202020203030303030301020408102007
:1000A0004080010204081020010204081020000012
:1000B0000008000201000003040700000000000027
:1000C00000008F0711241FBECFEFD8E0DEBFCDBFE9
:1000D00012E0A0E0B1E0E8EFFFE002C005900D9271
:1000E000A635B107D9F723E0A6E5B2E001C01D921D
:1000F000AE30B207E1F710E0C2E6D0E004C02197CD
:10010000FE010E94F407C136D107C9F70E94CA0454
:100110000C94FA070C940000AF92BF92CF92DF923A
:10012000EF92FF920F931F93CF93DF936C017B01AC
:100130008B01040F151FEB015E01AE18BF08C0173D
:10014000D10759F06991D601ED91FC910190F081B0
:10015000E02DC6010995892B79F7C501DF91CF9173
:100160001F910F91FF90EF90DF90CF90BF90AF90D5
:100170000895FC01538D448D252F30E0842F90E0AD
:10018000821B930B541710F0CF9608950197089592
:10019000FC01918D828D981761F0A28DAE0FBF2F5B
:1001A000B11D5D968C91928D9F5F9F73928F90E0B1
:1001B00008958FEF9FEF0895FC01918D828D981720
:1001C00031F0828DE80FF11D858D90E008958FEF5D
:1001D0009FEF0895FC01918D228D892F90E0805C26
:1001E0009F4F821B91098F739927089581E792E0B1
:1001F0000E94EA0021E0892B09F420E0822F089573
:1002000080E090E0892B29F00E94F60081110C9487
:1002100000000895FC01A48DA80FB92FB11DA35AA9
:10022000BF4F2C91848D90E001968F739927848F16
:10023000A689B7892C93A089B1898C918370806439
:100240008C93938D848D981306C00288F389E02DDA
:1002500080818F7D80830895EF92FF920F931F938B
:10026000CF93DF93EC0181E0888F9B8D8C8D981369
:100270001AC0E889F989808185FF15C09FB7F89475
:10028000EE89FF896083E889F989808183708064C1
:1002900080839FBF81E090E0DF91CF911F910F910C
:1002A000FF90EF900895F62E0B8D10E00F5F1F4F1B
:1002B0000F731127E02E8C8D8E110CC00FB607FC2A
:1002C000FACFE889F989808185FFF5CFCE010E94B8
:1002D0000A01F1CFEB8DEC0FFD2FF11DE35AFF4F1B
:1002E000F0829FB7F8940B8FEA89FB898081806246
:1002F000CFCFCF93DF93EC01888D8823B9F0AA8903
:10030000BB89E889F9898C9185FD03C0808186FDD0
:100310000DC00FB607FCF7CF8C9185FFF2CF80811F
:1003200085FFEDCFCE010E940A01E9CFDF91CF9189
:100330000895833081F028F4813099F08230A9F05B
:1003400008958730A9F08830C9F08430B1F48091E5
:1003500080008F7D03C0809180008F778093800024
:10036000089584B58F7784BD089584B58F7DFBCFC4
:100370008091B0008F778093B00008958091B00095
:100380008F7DF9CFCF93DF93282F30E0F901E2552D
:10039000FF4F8491F901E656FF4FD491F901EA57D6
:1003A000FF4FC491CC23A1F081110E949901EC2F41
:1003B000F0E0EE0FFF1FE458FF4FA591B491EC91D0
:1003C000ED2381E090E009F480E0DF91CF91089582
:1003D00080E090E0FACF1F93CF93DF93282F30E097
:1003E000F901E255FF4F8491F901E656FF4FD49190
:1003F000F901EA57FF4FC491CC23A9F0162F8111C0
:100400000E949901EC2FF0E0EE0FFF1FEE58FF4F16
:10041000A591B4918FB7F894EC91111108C0D095C3
:10042000DE23DC938FBFDF91CF911F910895DE2BE8
:10043000F8CFCF93DF9390E0FC01E656FF4F249175
:100440008A579F4FFC0184918823C9F090E0880F60
:10045000991FFC01E859FF4FA591B491FC01EE589A
:10046000FF4FC591D49161110DC09FB7F8948C9145
:10047000209582238C938881282328839FBFDF9136
:10048000CF910895623051F49FB7F8943C91822F38
:10049000809583238C93E8812E2BEFCF8FB7F89430
:1004A000EC912E2B2C938FBFEACF3FB7F89480911D
:1004B0005B0290915C02A0915D02B0915E0226B554
:1004C000A89B05C02F3F19F00196A11DB11D3FBF8C
:1004D000BA2FA92F982F8827BC01CD01620F711D5B
:1004E000811D911D42E0660F771F881F991F4A9555
:1004F000D1F708958F929F92AF92BF92CF92DF92E1
:10050000EF92FF924B015C010E9455026B017C014E
:100510000E9455026C197D098E099F09683E73403F
:1005200081059105A8F321E0821A9108A108B1087C
:1005300088EEC80E83E0D81EE11CF11C81149104E2
:10054000A104B10429F7FF90EF90DF90CF90BF9006
:10055000AF909F908F9008950895809163028111CC
:1005600017C086B18F718093050181E090E0909370
:10057000700280936F0210926202809105018F31A8
:1005800039F080910501882319F081E0809363029E
:10059000089580916302811115C086B18F71809397
:1005A000050181E090E09093700280936F02809348
:1005B0006202909105019F3129F0909105019111FE
:1005C000809363020895CF9360E08AE00E94EB017C
:1005D00061E087E00E94EB0164E670E080E090E07B
:1005E0000E947A02C0916602CC2341F060E089E06B
:1005F0000E94EB0161E089E00E9419026CE271E067
:1006000080E090E00E947A0260E087E00E94EB01C7
:10061000CC2371F06CE271E080E090E00E947A02FD
:1006200060E089E00E94190261E089E00E94EB012C
:1006300080915F02811113C080E197E290936E0276
:1006400080936D021092700210926F0210926802F5
:100650001092670261E08AE0CF910C94EB01109256
:100660006E0210926D0281E090E090937002809390
:100670006F02ECCFCF93C82F61E087E00E94EB01BF
:1006800062E370E080E090E00E947A0260E0C0FDEA
:1006900061E084E00E94EB0160E0C1FD61E085E083
:1006A0000E94EB0160E0C2FD61E086E0CF910C9416
:1006B000EB01FC0101900020E9F73197AF01481BE5
:1006C000590BBC0181E792E00C948C008F929F92B1
:1006D000AF92BF920F931F93CF93DF93CDB7DEB747
:1006E000A1970FB6F894DEBF0FBECDBF19A242305E
:1006F00008F44AE08E010F5D1F4F842E912CB12C1F
:10070000A12CA50194010E94D207E62FB901CA01CC
:10071000EA30F4F4E05DD801EE938D01232B242B15
:10072000252B79F790E080E0109719F0CD010E9419
:100730005903A1960FB6F894DEBF0FBECDBFDF916F
:10074000CF911F910F91BF90AF909F908F90089580
:10075000E95CE1CFCF93DF930E945903EC0188E17C
:1007600091E00E9459038C0F9D1FDF91CF91089556
:1007700061E087E00E94EB0180916A020E943A03E7
:100780008BE191E00E94590360916C0270E090E06F
:1007900080E04AE00E94660388E191E00E945903EC
:1007A0000E94E30260ED77E080E090E00C947A0232
:1007B0000C94C4071F920F920FB60F9211242F931F
:1007C0003F934F935F936F937F938F939F93AF93D9
:1007D000BF93EF93FF9381E792E00E940A01FF919C
:1007E000EF91BF91AF919F918F917F916F915F91A9
:1007F0004F913F912F910F900FBE0F901F90189522
:100800001F920F920FB60F9211242F938F939F93E5
:10081000EF93FF93E0918102F09182028081E09159
:100820008702F091880282FD1BC0908180918A022C
:100830008F5F8F7320918B02821741F0E0918A02C3
:10084000F0E0EF58FD4F958F80938A02FF91EF9172
:100850009F918F912F910F900FBE0F901F90189521
:100860008081F4CF1F920F920FB60F9211242F9315
:100870003F938F939F93AF93BF9380915702909133
:100880005802A0915902B0915A023091560223E0C9
:10089000230F2D3758F50196A11DB11D2093560247
:1008A0008093570290935802A0935902B0935A0232
:1008B00080915B0290915C02A0915D02B0915E021A
:1008C0000196A11DB11D80935B0290935C02A093E1
:1008D0005D02B0935E02BF91AF919F918F913F9166
:1008E0002F910F900FBE0F901F90189526E8230FA1
:1008F0000296A11DB11DD2CF1F920F920FB60F927B
:1009000011242F933F934F935F936F937F938F9314
:100910009F93AF93BF93EF93FF93E0910201F09108
:1009200003010995FF91EF91BF91AF919F918F9135
:100930007F916F915F914F913F912F910F900FBEDB
:100940000F901F9018951F920F920FB60F921124BF
:100950002F933F934F935F936F937F938F939F93C7
:10096000AF93BF93EF93FF93E0910001F0910101EA
:100970000995FF91EF91BF91AF919F918F917F91D9
:100980006F915F914F913F912F910F900FBE0F90FC
:100990001F901895789484B5826084BD84B5816079
:1009A00084BD85B5826085BD85B5816085BD80913A
:1009B0006E00816080936E001092810080918100B2
:1009C00082608093810080918100816080938100AA
:1009D000809180008160809380008091B10084606C
:1009E0008093B1008091B00081608093B0008091CD
:1009F0007A00846080937A0080917A00826080938C
:100A00007A0080917A00816080937A0080917A00E8
:100A1000806880937A001092C10062E082E00E94B8
:100A2000190262E083E00E94190262E08EE00E94F7
:100A3000190262E08FE00E94190262E080E10E94E8
:100A4000190262E081E10E94190262E082E10E94E3
:100A5000190262E083E10E94190260E089E00E94CD
:100A6000190261E089E00E94EB0161E08AE00E94E6
:100A7000EB0161E08AE00E94190260E088E00E94D8
:100A8000190288E00E94C201892B19F481E0809349
:100A90006B0290E080E00E94BC0780936C02882388
:100AA00051F090916B0228E030E0291B3109821748
:100AB000130649F044F081E080936C0261E090E01D
:100AC00080E00E94D80381E090E00E94BC07809300
:100AD0005F02823038F010925F0260E081E090E0C7
:100AE0000E94D80310926602C0916B0280916C0242
:100AF0008C0F815080936A020E943A0361E084E087
:100B00000E94190261E085E00E94190261E086E01E
:100B10000E94190260E087E00E94EB0161E087E03B
:100B20000E94190280E197E290936E0280936D0219
:100B30001092700210926F0288E090E08C1B910975
:100B4000909361028093600280915F02813051F442
:100B500081E090E09093700280936F0210926E0299
:100B600010926D0289EC92E0909301018093000154
:100B7000809169008C7F80936900E89A8DEA92E009
:100B8000909303018093020180916900837F809399
:100B90006900E99AE0918102F091820282E080830B
:100BA000E0917D02F0917E021082E0917F02F0914F
:100BB00080028FEC808310928902E0918502F0918F
:100BC000860286E08083E0918302F0918402808136
:100BD00080618083E0918302F0918402808188604B
:100BE0008083E0918302F091840280818068808319
:100BF000E0918302F091840280818F7D808385E380
:100C000091E00E94AA0380916B02813009F0F1C04B
:100C100082E691E00E94AA0381E991E00E945903D3
:100C200080915F02813009F0E7C08BE492E00E947E
:100C3000AA0385E291E00E94590360916C0270E082
:100C400090E080E04AE00E94660388E191E00E9423
:100C500059033FE7C32ED12C49E0742E0BE91FE066
:100C600050E0E52E50E0F52EC1E0AA24A394B12C6B
:100C700074EF872E99249394D0E887E0682E95E04E
:100C8000592E23E0422E80916F0290917002892BA1
:100C900069F486B18F718F3109F4B1C0B0927002DE
:100CA000A0926F0280EC91E00E94AA0383E10E946F
:100CB000C201019709F0C5C0809169028823E1F063
:100CC0008091670290916802893B9B4034F0C09309
:100CD000660283EF91E00E94590380916702909130
:100CE00068028D3D954044F08CE092E00E94AA039A
:100CF0000E94E3021092660210926902109268024A
:100D0000109267028091640290916502181619068C
:100D10005CF401979093650280936402892B21F41F
:100D200061E08AE00E94EB0180916302882309F46C
:100D3000F3C08091050184FDB1C0C093040180918E
:100D40006202811105C0809104018F5F80930401CC
:100D5000809104018A3011F4109204018CE292E037
:100D60000E9459036091040170E090E080E04AE045
:100D70000E9466038DEC91E00E94AA036091040139
:100D8000662309F4A7C08091600290916102681700
:100D9000190611F00CF0BDC080916902882309F496
:100DA000B8C060936C0290E080E00E94D80380910C
:100DB0006C0290916B02890F815080936A021092AD
:100DC0005F0260E081E090E00E94D8030E94B803D7
:100DD00010926302C8010197F1F7E114F10409F4DC
:100DE00052CF0E94F600882309F447CF0E940000EA
:100DF00044CF8AE791E00ECF8DE492E018CF809146
:100E00006D0290916E02181619064CF4019790939A
:100E10006E0280936D02C6010197F1F747CF88ED0E
:100E200091E00E94AA03C0936C0261E090E080E030
:100E30000E94D80380916B0280936A020E94B803DB
:100E400035CFC09369028091670290916802019644
:100E500090936802809367028C3D25E0920749F4E5
:100E600060E08AE00E94EB01909265028092640249
:100E700049CF893B9B400CF445CFC093660280E08C
:100E800092E00E94AA030E94E3021092690210926B
:100E90006802109267021092660234CF80910501B9
:100EA00080FD03C0409204014ACF8091050181FD7D
:100EB00003C05092040143CF8091050182FD03C01D
:100EC000609204013CCF8091050183FD38CF709280
:100ED000040135CF809169028823D9F0C0936C0258
:100EE00061E090E080E00E94D80380916C029091D4
:100EF0006B02890F815080936A02C0935F0261E0A8
:100F000081E090E00E94D80381E392E00E94AA036E
:100F10005DCFD09304015CCFD09304015BCFE1E7B8
:100F2000F2E01382128288EE93E0A0E0B0E08483C6
:100F30009583A683B7838AE091E09183808385ECD3
:100F400090E09587848784EC90E09787868780EC93
:100F500090E0918B808B81EC90E0938B828B82EC84
:100F600090E0958B848B86EC90E0978B868B118E2E
:100F7000128E138E148E0895F999FECF92BD81BD05
:100F8000F89A992780B50895262FF999FECF1FBAB0
:100F900092BD81BD20BD0FB6F894FA9AF99A0FBEA2
:100FA00001960895A1E21A2EAA1BBB1BFD010DC0DC
:100FB000AA1FBB1FEE1FFF1FA217B307E407F50709
:100FC00020F0A21BB30BE40BF50B661F771F881FE5
:100FD000991F1A9469F760957095809590959B017B
:100FE000AC01BD01CF010895EE0FFF1F0590F491F4
:080FF000E02D0994F894FFCFF5
:100FF800AC02AC02801F000000002C018C00B9007C
:101008007901EA00C800DC000D0A004368616E67D8
:101018006520746F204B65726E616C206E756D6211
:1010280065723A20000A433634204B6579626F6155
:10103800726420436F6E74726F6C6C6564204B65CC
:10104800726E616C205377697463682076302E3233
:10105800300053686F727420426F61726420636F4E
:101068006E666967757265642E004C6F6E67204204
:101078006F61726420636F6E666967757265642E4E
:1010880000456D707479204B65726E616C20736CCD
:101098006F7420283D7363616E206163746976699B
:1010A80074792920646574656374696F6E3A2000E9
:1010B8004B6579626F617264207363616E20646549
:1010C8007465637465642E004E6F206B6579626F7A
:1010D800617264207363616E20646574656374650E
:1010E800642E004558524F4D206D6F64653A2000BC
:1010F8004558524F4D206D6F64653A2052657374A0
:101108006F7265206B6579203D3E2052657365746A
:10111800696E672074686520433634004B65792012
:10112800004B65726E616C203120616E64207363C0
:10113800616E2074696D656F757420696E61637482
:061148006976652E00002F
:00000001FF
